S11302008611B7F403BD0294FF03C0B603C0811482
S1130210220AB603C1810F2203BD02A33F7E020559
S11302205F81642D0580645C20F7F703BD5F810A5C
S11302302D05800A5C20F7F703BEB703BF3930EE03
S1130240000908A60081FF2707BDFC0F8D3B20F2A3
S113025031316E01A60081FF2708BDFC0F8D2A08ED
S113026020F239B6F403850127F9B6F402398DF387
S1130270BDFC1D2512B703B68DE9BDFC1D2508166E
S1130280B603B6BDFC313920E5F6F403C50227F9FF
S1130290B7F402398DD8B703B78DD3B703B8FE03CB
S11302A0B73939FF03BBBD023E596F7520776569C5
S11302B067682000FFB603BBBD02E7BD023E2073A2
S11302C0746F6E65732000FFB603BCBD02E7BD0208
S11302D03E20706F756E64730D0AFF39368620BD3B
S11302E0FC0FBD028932394CCE03034A27040808A7
S11302F026F9A600B703B9A601B703BAFE03B9BD30
S1130300025439032D03320336033A0340034503F1
S11303104A034E0354035A035F0363036A037103DE
S11303207A0383038B0393039D03A603AF7A657259
S11303306FFF6F6E65FF74776FFF7468726565FF9A
S1130340666F7572FF66697665FF736978FF73651A
S113035076656EFF6569676874FF6E696E65FF7424
S1130360656EFF656C6576656EFF7477656C7665A2
S1130370FF746869727465656EFF666F7572746583
S1130380656EFF6669667465656EFF73697874658A
S1130390656EFF736576656E7465656EFF65696786
S11303A0687465656EFF6E696E657465656EFF746D
S10903B077656E7479FF0D
S9030000FC
