:100200008611B7F4034FBD02F0BD02FB4C810A26F4
:10021000F5BD02F0BD02E1FF0366BD02F0B6036664
:10022000BD026DB60369BD02FBBD02F0B6036ABD37
:1002300002FBBD02F0B60367BD026DB60369BD02E5
:10024000FBBD02F0B6036ABD02FBBD028B0D0A5373
:1002500068616C6C20492074656C6C20796F752026
:1002600061206A6F6B653F0D0AFF7E02145F816437
:100270002D0580645C20F7F703685F810A2D0580F7
:100280000A5C20F7F70369B7036A3930EE00090802
:10029000A60081FF2707BDFC0F8D3B20F231316E98
:1002A00001A60081FF2708BDFC0F8D2A0820F23926
:1002B000B6F403850127F9B6F402398DF3BDFC1DB0
:1002C0002512B703638DE9BDFC1D250816B603632F
:1002D000BDFC313920E5F6F403C50227F9B7F40275
:1002E000398DD8B703648DD3B70365FE03643939FC
:1002F000368620BDFC0FBD02D63239364CCE0319EE
:100300004A2704080826F9A600B71004A601B7106A
:1003100005FE1004BD02A13239032D03320336035A
:100320003A03400345034A034E0354035A7A657265
:100330006FFF6F6E65FF74776FFF7468726565FF9E
:10034000666F7572FF66697665FF736978FF73651E
:1003500076656EFF6569676874FF6E696E65FF7428
:03036000656EFFC8
:00000001FF
