S11302008611B7F4034FBD02F2BD02FD4C810A26EC
S1130210F5BD02F2BD02E3FF0368BD02F2B6036856
S1130220BD026FB6036B8B30BD02D8B6036C8B3046
S1130230BD02D8BD02F2B60369BD026FB6036B8B73
S113024030BD02D8B6036C8B30BD02D8BD028D0D13
S11302500A5368616C6C20492074656C6C20796F5A
S1130260752061206A6F6B653F0D0AFF7E02145F83
S113027081642D0580645C20F7F7036A5F810A2D91
S113028005800A5C20F7F7036BB7036C3930EE0086
S11302900908A60081FF2707BDFC0F8D3B20F23122
S11302A0316E01A60081FF2708BDFC0F8D2A0820AE
S11302B0F239B6F403850127F9B6F402398DF3BD9A
S11302C0FC1D2512B703658DE9BDFC1D250816B676
S11302D00365BDFC313920E5F6F403C50227F9B7FF
S11302E0F402398DD8B703668DD3B70367FE03666E
S11302F03939368620BDFC0FBD02D83239364CCE92
S1130300031B4A2704080826F9A600B71004A6010F
S1130310B71005FE1004BD02A33239032F033403C2
S113032038033C03420347034C03500356035C7AEF
S113033065726FFF6F6E65FF74776FFF7468726527
S113034065FF666F7572FF66697665FF736978FF8E
S1130350736576656EFF6569676874FF6E696E65BF
S1080360FF74656EFF4F
S9030000FC
