:100200008611B7F403BD02AEFF05CCCE0360BD037B
:1002100000BD02EDB605CC81142215B605CD810DC9
:10022000220FCE035DBD0300FE05CCBD02BC200144
:100230003F7E0205395F81642D0580645C20F7F7FD
:1002400005C85F810A2D05800A5C20F7F705C9B74C
:1002500005CA3930EE000908A60081FF2707BDFC5A
:100260000F8D4020F231316E01A60081FF2708BDBD
:10027000FC0F8D2F0820F2397C05CBB6F4038501E5
:1002800027F6B6F402847F398DEEBDFC1D2512B72A
:1002900005BF8DE4BDFC1D250816B605BFBDFC31AC
:1002A0003920E5F6F403C50227F9B7F402398DD8F1
:1002B000B705C08DD3B705C1FE05C039FF05C6B669
:1002C00005C6BD0341BD02E2861BBD0341BD02E27E
:1002D000B605C7BD0341861CBD02E2BD0341BD0298
:1002E000ED39368620BDFC0FBD02A3323936860DAE
:1002F000BDFC0FBD02A3860ABDFC0FBD02A33239AF
:10030000A60008FF05C48100270BBD0341BD02E222
:10031000FE05C420EB394CCE035D4A2704080820B3
:10032000F9A600B705C4A601B705C5FE05C4A60019
:1003300008FF05C481002708BD0341BD02E220EB90
:10034000394CCE052D4A2704080826F9A600B70522
:10035000C2A601B705C3FE05C2BD02693915160064
:100360001819171A002E2F30311832333400351770
:100370003637003B3C3D2F3E3F4000204142434446
:100380002021454647007A65726FFF6F6E65FF74E6
:10039000776FFF7468726565FF666F7572FF6669D7
:1003A0007665FF736978FF736576656EFF656967CB
:1003B0006874FF6E696E65FF74656EFF656C6576C7
:1003C000656EFF7477656C7665FF74686972746535
:1003D000656EFF666F75727465656EFF666966743B
:1003E00065656EFF7369787465656EFF7365766524
:1003F0006E7465656EFF656967687465656EFF6E2E
:10040000696E657465656EFF7477656E7479FF79E2
:100410006F75FF7765696768FF6973FF6D79FF6EB8
:10042000616D65FF6D617276696EFF73746F6E65E5
:1004300073FF706F756E6473FF6861FF3FFF21FF8C
:100440002EFF49FF616DFF61FF6D616368696E6535
:10045000FF666F72FF616E616C79746963616CFF36
:10046000726561736F6E696E67FF77697468FF7696
:10047000657279FF6C6974746C65FF696E7465727E
:10048000657374FF616E64FF6E6FFF656E746875EF
:10049000736961736DFF616C6CFF746865FF6469FB
:1004A0006F646573FF6F6EFF6D656D6F7279FF63CB
:1004B00061726473FF68757274FF74686973FF76A4
:1004C000657279FF626F72696E67FF7368616C6C49
:1004D000FF74656C6CFF6A6F6B65FF6E65776265B4
:1004E0006172FF736D6172746572FF7468616EFF93
:1004F00061766572616765FF62656172FF70726F38
:100500006261626C79FF6B6E6F77FF6C6F6F6BFF70
:100510006974FF627574FF61637475616C6C79FF57
:100520007175697465FF636C65766572FF03860398
:100530008B038F03930399039E03A303A703AD03C8
:10054000B303B803BC03C303CA03D303DC03E4034C
:10055000EC03F603FF0408040F04130419041C043D
:100560001F0424042B0432043C043E0440044204CF
:100570004404470449045104550460046A046F04A8
:1005800074047B04840488048B0496049A049E04F7
:10059000A504A804AF04B504BA04BF04C404CB0482
:1005A000D104D604DB04E304EB04F004F804FD05F5
:0F05B00006050B05100513051705200526043950
:00000001FF
