:100200008611B7F403BD02D0FF0484860ABD03261D
:10021000BD0313B6048481142214B60485810D2213
:100220000E8600BD0326FE0484BD02DE20013FCE03
:1002300003BABD03267E0205BD02755368616C6C6E
:1002400020492074656C6C20796F752061206A6F7D
:100250006B653F0A0DFF395F81642D0580645C206A
:10026000F7F704805F810A2D05800A5C20F7F70408
:1002700081B704823930EE000908A60081FF270704
:10028000BDFC0F8D4020F231316E01A60081FF27A9
:1002900008BDFC0F8D2F0820F2397C0483B6F403CF
:1002A000850127F6B6F402847F398DEEBDFC1D254D
:1002B00012B704778DE4BDFC1D250816B60477BD82
:1002C000FC313920E5F6F403C50227F9B7F4023909
:1002D0008DD8B704788DD3B70479FE047839FF043C
:1002E0007EB6047EBD0351BD02752073746F6E65CA
:1002F000732000FFB6047FBD0351BD027520706FEF
:10030000756E64730D0AFF39368620BDFC0FBD0281
:10031000C5323936860DBDFC0FBD02C5860ABDFC4F
:100320000FBD02C532394CCE03A14A27040808206C
:10033000F9A600B7047CA601B7047DFE047CA600E4
:1003400008FF047C81002708BD0351BD030820EB92
:10035000394CCE036D4A2704080826F9A600B704D5
:100360007AA601B7047BFE047ABD028B3903D90358
:10037000DE03E203E603EC03F103F603FA040004F0
:1003800006040B040F0416041D0426042F0437046E
:100390003F04490452045B04620466046C046F0465
:1003A0007203B703BA03BD03C003C303C603C90383
:1003B000CC03CF03D203D51516001401001402009C
:1003C000140300140400140500140600140700149C
:1003D0000800140900181917007A65726FFF6F6E14
:1003E00065FF74776FFF7468726565FF666F75727D
:1003F000FF66697665FF736978FF736576656EFFE2
:100400006569676874FF6E696E65FF74656EFF6588
:100410006C6576656EFF7477656C7665FF746869E8
:10042000727465656EFF666F75727465656EFF66E2
:1004300069667465656EFF7369787465656EFF73D0
:100440006576656E7465656EFF6569676874656578
:100450006EFF6E696E657465656EFF7477656E74A8
:1004600079FF796F75FF7765696768FF6973FF6D5D
:0704700079FF6E616D65FF6D
:00000001FF
