:100200008611B7F403BD02B7FF03CDBD0261596F7C
:10021000752077656967682000FFB603CDBD02F7DA
:10022000BD02612073746F6E65732000FFB603CE4C
:10023000BD02F7BD026120706F756E64730D0AFF19
:100240007E02055F81642D0580645C20F7F703CF93
:100250005F810A2D05800A5C20F7F703D0B703D130
:100260003930EE000908A60081FF2707BDFC0F8D7D
:100270003B20F231316E01A60081FF2708BDFC0F43
:100280008D2A0820F239B6F403850127F9B6F40265
:10029000398DF3BDFC1D2512B703CA8DE9BDFC1DC8
:1002A000250816B603CABDFC313920E5F6F403C5AE
:1002B0000227F9B7F402398DD8B703CB8DD3B70332
:1002C000CCFE03CB3939B603CDBD02F7BD026120A8
:1002D00073746F6E65732000FFB603CEBD02F7BD69
:1002E000026120706F756E64730D0AFF368620BD43
:1002F000FC0FBD02AC3239364CCE03154A27040838
:100300000826F9A600B71004A601B71005FE1004D0
:10031000BD02773239033F03440348034C035203C1
:1003200057035C03600366036C03710375037C036E
:1003300083038C0395039D03A503AF03B803C17A20
:1003400065726FFF6F6E65FF74776FFF746872651B
:1003500065FF666F7572FF66697665FF736978FF82
:10036000736576656EFF6569676874FF6E696E65B3
:10037000FF74656EFF656C6576656EFF7477656CFE
:100380007665FF746869727465656EFF666F757275
:100390007465656EFF6669667465656EFF7369787E
:1003A0007465656EFF736576656E7465656EFF6571
:1003B0006967687465656EFF6E696E657465656E04
:0A03C000FF6E696E657465656EFFDF
:00000001FF
