S11302008611B7F403BD02B2FF04518601BD030495
S1130210BD02F1B6045181142214B60452810D2298
S11302200E8600BD0304FE0451BD02C020013FCE72
S1130230038CBD03047E0205395F81642D0580644F
S11302405C20F7F7044D5F810A2D05800A5C20F7D6
S1130250F7044EB7044F3930EE000908A60081FFB9
S11302602707BDFC0F8D4020F231316E01A60081BD
S1130270FF2708BDFC0F8D2F0820F2397C0450B6EF
S1130280F403850127F6B6F402847F398DEEBDFCB4
S11302901D2512B704448DE4BDFC1D250816B604C3
S11302A044BDFC313920E5F6F403C50227F9B7F45F
S11302B002398DD8B704458DD3B70446FE044539B9
S11302C0FF044BB6044BBD032FBD02E6861BBD03E2
S11302D02FBD02E6B6044CBD032F861CBD02E6BD4D
S11302E0032FBD02F139368620BDFC0FBD02A732B3
S11302F03936860DBDFC0FBD02A7860ABDFC0FBDB5
S113030002A732394CCE03854A2704080820F9A6EF
S113031000B70449A601B7044AFE0449A60008FF31
S1130320044981002708BD032FBD02E620EB394CA8
S1130330CE034B4A2704080826F9A600B70447A6AB
S113034001B70448FE0447BD026D390391039603C7
S11303509A039E03A403A903AE03B203B803BE0326
S1130360C303C703CE03D503DE03E703EF03F70498
S113037001040A0413041A041E04240427042A048E
S11303802F0436043D0389038C1516001819171A17
S1130390007A65726FFF6F6E65FF74776FFF746824
S11303A0726565FF666F7572FF66697665FF7369CE
S11303B078FF736576656EFF6569676874FF6E69BB
S11303C06E65FF74656EFF656C6576656EFF7477A8
S11303D0656C7665FF746869727465656EFF666F37
S11303E075727465656EFF6669667465656EFF7324
S11303F069787465656EFF736576656E7465656EA0
S1130400FF656967687465656EFF6E696E6574651E
S1130410656EFF7477656E7479FF796F75FF776524
S1130420696768FF6973FF6D79FF6E616D65FF6DC4
S1130430617276696EFF73746F6E6573FF706F75AA
S10704406E6473FF70
S9030000FC
