S11302008611B7F403BD02CFFF0485860ABD03251A
S1130210BD0312B6048581142214B60486810D220E
S11302200D8600BD0325FE0485BD02DD2000CE033E
S1130230BBBD03257E0205BD02745368616C6C204E
S1130240492074656C6C20796F752061206A6F6B2E
S1130250653F0A0DFF395F81642D0580645C20F7DA
S1130260F704815F810A2D05800A5C20F7F7048278
S1130270B704833930EE000908A60081FF2707BDC3
S1130280FC0F8D4020F231316E01A60081FF27085A
S1130290BDFC0F8D2F0820F2397C0484B6F403854D
S11302A00127F6B6F402847F398DEEBDFC1D2512BC
S11302B0B704788DE4BDFC1D250816B60478BDFC92
S11302C0313920E5F6F403C50227F9B7F402398D74
S11302D0D8B704798DD3B7047AFE047939FF047F43
S11302E0B6047FBD0352BD02742073746F6E6573D0
S11302F02000FFB60480BD0352BD027420706F75E8
S11303006E64730D0AFF39368620BDFC0FBD02C42E
S1130310323936860DBDFC0FBD02C4860ABDFC0F02
S1130320BD02C432394CCE03A24A2704080820F97E
S1130330A600B7047DA601B7047EFE047DA6008155
S113034000270EBD03527C047DFE047DBD030720FF
S1130350EC394CCE036E4A2704080826F9A600B7E8
S1130360047BA601B7047CFE047BBD028A3903DA50
S113037003DF03E303E703ED03F203F703FB0401E5
S11303800407040C04100417041E04270430043862
S11303900440044A0453045C04630467046D047059
S11303A0047303B803BB03BE03C103C403C703CA76
S11303B003CD03D003D303D6151600140100140291
S11303C000140300140400140500140600140700AC
S11303D0140800140900181917007A65726FFF6F6A
S11303E06E65FF74776FFF7468726565FF666F757D
S11303F072FF66697665FF736978FF736576656E6B
S1130400FF6569676874FF6E696E65FF74656EFFEA
S1130410656C6576656EFF7477656C7665FF7468E8
S113042069727465656EFF666F75727465656EFFDB
S11304306669667465656EFF7369787465656EFFD9
S1130440736576656E7465656EFF65696768746566
S1130450656EFF6E696E657465656EFF7477656EB3
S11304607479FF796F75FF7765696768FF6973FF52
S10B04706D79FF6E616D65FFFB
S9030000FC
