S11302008611B7F403BD032725037E02A1811422BE
S113021045B606CE810D226ABD02C0BD0327BD03CB
S113022056596F7520776569676800FE06CDBD0372
S1130230BFB606CD810622037E0324810A22037EF3
S113024002D6810D22037E02E8810F2B037E02FA7F
S11302507E030C7E0324BD035653797374656D20AD
S11302606F7665726C6F6164E280A620616E6420B3
S11302706974E2809973206E6F74206D652E007E20
S11302800324BD0356496E7465726E616C206572F9
S1130290726F722C207479706963616C21007E0323
S11302A0247C06CFB606CF815A26797F06CF7C06FA
S11302B0D0B606D0810126058600B706D07E031B82
S11302C07C06D1B606D1810126058600B706D1BDCC
S11302D00403BD03F0397C06D2B606D2810126059B
S11302E08600B706D27E031B7C06D3B606D38101F3
S11302F026058600B706D37E031B7C06D4B606D437
S1130300810126058600B706D47E031B7C06D5B67C
S113031006D5810126058600B706D4BD0403BD03B6
S1130320F07E03247E0205BD03B1FF06CD0CB606A4
S1130330CD27047F005A0D395F81642D0580645CEC
S113034020F7F706C75F810A2D05800A5C20F7F7BE
S113035006C8B706C93930EE000908A60081FF2790
S113036007BDFC0F8D4020F231316E01A60081FFE4
S11303702708BDFC0F8D2F0820F2397C06CAB6F47D
S113038003850127F6B6F402847F398DEEBDFC1D8A
S11303902512B706BE8DE4BDFC1D250816B606BEA3
S11303A0BDFC313920E5F6F403C50227F9B7F402A0
S11303B0398DD8B706BF8DD3B706C0FE06BF39FF47
S11303C006C5B606C5BD042EBD03E5861BBD042EB9
S11303D0BD03E5B606C6BD042E861CBD03E5BD04FB
S11303E02EBD03F039368620BDFC0FBD03A632397D
S11303F036860DBDFC0FBD03A6860ABDFC0FBD03EA
S1130400A632394CCE04734A2704080820F9A60002
S1130410B706C3A601B706C4FE06C3A60008FF06B6
S1130420C381002708BD042EBD03E520EB394CCE63
S1130430062C4A2704080826F9A600B706C1A60117
S1130440B706C2FE06C1BD036C391516001819178C
S11304501A002E2F30311832333400351736370056
S11304603B3C3D2F3E3F4000204142434420214538
S1130470464700044D0452045B04600468044D04C0
S11304804D044D044D7A65726FFF6F6E65FF74778E
S11304906FFF7468726565FF666F7572FF666976D3
S11304A065FF736978FF736576656EFF65696768D4
S11304B074FF6E696E65FF74656EFF656C657665C5
S11304C06EFF7477656C7665FF7468697274656530
S11304D06EFF666F75727465656EFF666966746536
S11304E0656EFF7369787465656EFF736576656E16
S11304F07465656EFF656967687465656EFF6E692E
S11305006E657465656EFF7477656E7479FF796FD7
S113051075FF7765696768FF6973FF6D79FF6E61C1
S11305206D65FF6D617276696EFF73746F6E6573CE
S1130530FF706F756E6473FF6861FF3FFF21FF2ECC
S1130540FF49FF616DFF61FF6D616368696E65FF5F
S1130550666F72FF616E616C79746963616CFF72BE
S11305606561736F6E696E67FF77697468FF76659E
S11305707279FF6C6974746C65FF696E7465726579
S11305807374FF616E64FF6E6FFF656E74687573DC
S11305906961736DFF616C6CFF746865FF64696FFA
S11305A0646573FF6F6EFF6D656D6F7279FF6361D4
S11305B0726473FF68757274FF74686973FF76659B
S11305C07279FF626F72696E67FF7368616C6CFFAA
S11305D074656C6CFF6A6F6B65FF6E65776265614D
S11305E072FF736D6172746572FF7468616EFF618E
S11305F0766572616765FF62656172FF70726F6232
S113060061626C79FF6B6E6F77FF6C6F6F6BFF6964
S113061074FF627574FF61637475616C6C79FF714A
S113062075697465FF636C65766572FF0485048A79
S1130630048E04920498049D04A204A604AC04B29B
S113064004B704BB04C204C904D204DB04E304EB0E
S113065004F504FE0507050E05120518051B051E05
S11306600523052A0531053B053D053F05410543A5
S11306700546054805500554055F0569056E057373
S1130680057A05830587058A05950599059D05A4C1
S113069005A705AE05B405B905BE05C305CA05D051
S11306A005D505DA05E205EA05EF05F705FC0605BB
S11106B0060A060F06120616061F0625053852
S9030000FC
