S11302008611B7F403BD02C5FF02DDBD02D4B602F8
S1130210DDBD0260B602E08B30BD02BAB602E18BEE
S113022030BD02BABD02D4B602DEBD0260B602E041
S11302308B30BD02BAB602E18B30BD02BABD027E7C
S11302400D0A5368616C6C20492074656C6C2079CC
S11302506F752061206A6F6B653F0D0AFF7E020592
S11302605F81642D0580645C20F7F702DF5F810AFB
S11302702D05800A5C20F7F702E0B702E13930EE81
S1130280000908A60081FF2707BDFC0F8D2C20F272
S113029031316E01B6F403850127F9B6F402398DC4
S11302A0F3BDFC1D2512B702DA8DE9BDFC1D25083E
S11302B016B602DABDFC313920E5F6F403C502278F
S11302C0F9B7F402398DD8B702DB8DD3B702DCFE5F
S10D02D002DB39398620BD02BA3979
S9030000FC
