S113FC00BDFD2B27FB8D08812E26117EFF8E01F66C
S113FC10F401C50227F9B7F4007CF0F539812F2FE0
S113FC200E813922020C3981402F0481462FF60DB2
S113FC30398530270C48484848C5302708C40F1B6D
S113FC40398B0920F0CB0920F48DB58DD02510B760
S113FC50F0F68DAC8DC7250716B6F0F67EFCD8BD40
S113FC60FD217EFC49BDFD4D8DDFB7F0F38DDAB784
S113FC70F0F4FEF0F33930EE000908A60081FF2706
S113FC80048D8C20F531316E018DEB2053FF8DD521
S113FC90FFF0EF8DE12046FF8DCBFFF0F1391684A4
S113FCA0F0444444448109220B8B30C40FC109221F
S113FCB007CB30398B3720F3CB3739FFF0EDB6F073
S113FCC0ED8D06B6F0EE20010137368DD137BDFC3F
S113FCD00F32BDFC0F323339BDFC3116FBF0DAF7BD
S113FCE0F0DA398D910D0AFFBDFC00815326F9BD70
S113FCF0FC00813926037EFEB2813126EB7FF0DAE7
S113FD00BDFC498002B7F0DBBDFC65BDFC497AF05F
S113FD10DB2705A7000820F37CF0DA27CB8D02202F
S113FD2029863F7EFC0F0101010101B6F401850122
S113FD3027F97EFDCF018D15FEF0FD8D1C8D1A8DEA
S113FD40188D108D0ECEF0FD8D0A7EFF8E8620BD9F
S113FD50FC0F3908A600BDFCC908A600BDFCC98D6E
S113FD60EC39BDFC89BDFC762054455354494E47BB
S113FD702E2E2EFFFEF0EF4F1BA70008BCF0F1263D
S113FD80F7FEF0EF4F1BA100261D08BCF0F126F58D
S113FD90B6F401850126035C26DAB6F400BDFC76D0
S113FDA0204F4BFF7EFF8E36A60036BDFE96BDFD6E
S113FDB04D32BDFCC9BDFC76213DFF32BDFCC97E80
S113FDC0FF8E01BDFC7620302E3032FF7EFF8EB6D2
S113FDD0F400847F39CEF0E6A601E600A003E20237
S113FDE039BDFC89FEF0EFFFF0D8B6F0F2B0F0D9DF
S113FDF0F6F0F1F2F0D8260481102502860F8B0468
S113FE00B7F0DB8003B7F0DCBDFC760D0A5331FF9D
S113FE105FCEF0DBBDFEA7CEF0D8BDFEA7BDFEA72A
S113FE20FEF0D8BDFEA77AF0DC26F8FFF0D85337F1
S113FE30308D7433FEF0D809BCF0F126AD7EFFDCC2
S113FE400101BDFC65BDFD4D7FF0F5A600BDFCC9FB
S113FE50BDFC008120260C08B6F0F581162FEC8D30
S113FE603520E2812F26030920F5810D2603082081
S113FE70EEBDFC1D2519B7F0F6BDFC00BDFC1D252B
S113FE80D216B6F0F6BDFC31A700BDFD4D20C886E4
S113FE903FBDFC0F20BAFFF0E3BDFC760D0A00FF66
S113FEA0FEF0E3BDFCBB39EB0036A600BDFCC93255
S113FEB00839CE0008BDFC000926FA7EFF8E010138
S113FEC001BDFC65BDFC00B6F0F4F6F0F3FEF0FDF8
S113FED0A707E706BEF0FD3BBDFC0081312610FEFE
S113FEE0F0F7B6F0FBA700B6F0F8F6F0F720DE81E5
S113FEF03227037EFF8EFEF0F9B6F0FCA700B6F0C1
S113FF00FAF6F0F920C7BDFC89FEF0EFBDFE968637
S113FF1008B7F0F60908BDFD4DA600BDFCC9BCF04C
S113FF20F12606B6F4007EFF8EB6F401850126F3B1
S113FF307AF0F626E00820D4BDFC0081312612BDFB
S113FF40FC65A600B7F0FBFFF0F7863FA7007EFF35
S113FF508E813226F9BDFC65A600B7F0FCFFF0F9EE
S113FF6020E8BDFC7620434320422020412020206D
S113FF70582020202050432020205350FF200F01E0
S113FF808EF0D08603B7F401B7F403BFF0FD8EF012
S113FF90D08611B7F401BDFC760D0A002AFFBDFC22
S113FFA000CEFFB7E60027E611270508080820F46D
S113FFB0E601A60236373953FF3848FF6250FDE1A7
S113FFC04CFCE352FD364DFE4247FEC143FED8448D
S113FFD0FF0654FD6256FDC34EFF8000BDFC760D46
S113FFE00A53393033303030304643FF20A001010A
S112FFF001010101010101F0E0FF8BF0DDFF8051
S9030000FC
