:10000000020002FF02FE01FE00FEFFFEFEFEFEFFFA
:10001000FE00FE01FE02FF020002010202020201D6
:100056000026002F00360037003E003F00400041DA
:100066000042004400460048004A004C005100553A
:100080000D0A7C20787878207C20787878207C2075
:10009000787878207C20787878207C207878782090
:1000A0007C20787878207C20787878207C2078787C
:0800B00078207C000000000034
:100100000D0A444F20594F552057414E5420544F0B
:1001100020474F204F4E2041205350414345205609
:100120004F594147453F20000D0A594F55204D5525
:1001300053542044455354524F5920787820414C11
:1001400049454E20534849505320494E2078782045
:100150005354415244415445532057495448207800
:100160002053504143452053544154494F4E53006E
:100170000D0A202D312D2D322D2D332D2D342D2DE9
:10018000352D2D362D2D372D2D382D000D0A3820EB
:10019000202020202020202020202020202020205F
:1001A000202020202020200020535441524441543C
:1001B000452020333078780020434F4E444954493D
:1001C0004F4E20787878787800205155414452413C
:1001D0004E542020782C780020534543544F522011
:1001E000202020782C780020454E45524759202069
:1001F0002020787878780020544F525045444F455D
:10020000532078780020534849454C4453202020FF
:1002100078787878000D0A434F4D4D414E443F00A9
:100220000D0A434F555253452028312D382E35297C
:100230003F20000D0A5741525020464143544F522F
:100240002028302E312D372E37293F20000D0A4C23
:100250002E522E205343414E20464F52000D0A4D40
:10026000495353494F4E204641494C45442C20594F
:100270004F5520484156452052554E204F55542049
:100280004F4620535441524441544553000D0A4BAC
:10029000412D424F4F4D2C20594F55204352415331
:1002A00048454420494E544F204120535441522E3A
:1002B00020594F5552205348495020495320444516
:1002C0005354524F594544000D0A594F55204D4F34
:1002D000564544204F5554204F462054484520470A
:1002E000414C4158592C20594F55522053484950A0
:1002F000204953204C4F53542E2E4C4F5354000D35
:100300000A4C4F5353204F4620454E4552475920E3
:1003100078787878000D0A44414E4745522D53486D
:1003200049454C4420454E45524759203030300015
:100330000D0A534849454C4420454E4552475920E3
:100340005452414E53464552203D20000D0A4E4F17
:100350005420454E4F55474820454E455247590079
:100360000D0A544F525045444F205452414A454380
:10037000544F525928312D382E3529203A20000D5E
:100380000A414C49454E2053484950204445535456
:10039000524F594544000D0A594F55204D4953536A
:1003A00045442120414C49454E2053484950205254
:1003B0004554414C4941544553000D0A5350414363
:1003C000452053544154494F4E2044455354524FB5
:1003D000594544000D0A434F4E47524154554C4134
:1003E00054494F4E532C20594F55204841564520D3
:1003F000454C494D494E4154454420414C4C204FB9
:10040000462054484520414C49454E2053484950C8
:1004100053000D0A545241434B494E473A20782C21
:1004200078000D0A47414C41585920444953504CDB
:100430004159000D0A504841534F5220454E4552F4
:10044000475920544F2046495245203D20000D0A6F
:10045000414C49454E205348495020415420534572
:1004600043544F5220782C783A2000454E4552474D
:1004700059203D2078787878000D0A4E4F20414C65
:1004800049454E2053484950532120574153544524
:10049000442053484F54000D0A4142414E444F4EB0
:1004A000205348495021204E4F20454E4552475930
:1004B000204C454654000D0A4E4F20544F52504593
:1004C000444F4553000D0A7C20303030207C2030D2
:1004D0003030207C20303030207C000D0A4C4153DD
:1004E000542053504143452053544154494F4E20CA
:1004F000474F4E45000D0A434849434B454E2100A6
:100500008E0EFF7E0972A6002706BD0F890820F611
:100510003947474747399633499833467C00349BDF
:100520003428037A0034973339DF20DE726F006F8E
:10053000016F026F036F04DE20A6005A2702E60156
:100540009726D727CE1027DF288D21D755CEE80351
:10055000DF288D18D754CE6400DF288D0FD753863F
:100560000A97288D07D75296269751395F5C9626B1
:100570009028972696279229972724F196269B283C
:1005800097269627992997275A397F0029965197B8
:1005900028D6522707CE0A00DF268D17D653270705
:1005A000CE6400DF268D0CD6542707CEE803DF2665
:1005B0008D0139CE0028BD08025A26F739A60081E0
:1005C000302B04803A8B8039DE5C86C0C60BA700D6
:1005D000085A26FAD635C4072704DE5C8D319635D5
:1005E000BD051216C4012704DE5E8D239635BD05B8
:1005F0001116C4032716DE608D158D10DE6A8D0678
:10060000DE6C8D02DE6EA7008403A7017E0516DF77
:10061000208DF9843F8D0B27F8DE20A700085A268D
:10062000EE39DE5CA1002706089C667E0E823996B4
:100630004C8AC0BD0951A600973539CE8813DF42D8
:10064000CE0000DF44860A974D39CE025DBD050617
:100650007E0500CE02C820F5CE028D20F0CE049794
:1006600020EBDF209F229E20DE72A600088A303613
:100670005A26F79E2239CE018F8620A700088C01CA
:10068000A726F8178A30B7018E5ADE5A8D52260CEB
:10069000863CA700866FA701863EA702DE5CDF22AC
:1006A0008D3E2604862AA7017C0023DE229C5E263E
:1006B000EF8D2D260C865DA700864FA701865BA7D0
:1006C00002DE60DF228D192608862BA700A701A76E
:1006D000027C0023DE229C6626EBCE018C7E050682
:1006E000A6002B1DBD05128407112615A600840740
:1006F0009726489B268B8F7F00207C0020BD0954C5
:100700004F39CE01D4DF20CE004C8D06CE01C97EFC
:100710000506A60016DE20BD051284078B31A70052
:10072000C407CB31E70239C613860D8D0C860A8DBE
:1007300008862D8D045A26F9397E0F8916BD0511BC
:1007400084038A30A70017BD051284018A30A701EF
:10075000C407CA30E702394F20144F202F7E0951B9
:100760008AC0169726C40727EE4A8DF1A600CE044C
:10077000C98DC996268DE6A600CE04CF8DBE9626DD
:1007800016C407C10727D34C8DD3A600CE04D5BD10
:10079000073CCE04C57E0506DF2ACE002AC602BD70
:1007A0000529CE0313C604BD0662CE02FF8DE6DE28
:1007B0002ADF268D232432DE44DF268D2C8D41DE78
:1007C0002ADF268D1725538D24CE03158DC7C6022B
:1007D0008D3D8D0825442015DE682002DE66A601C9
:1007E00091272635A600912639DE682002DE66A60E
:1007F000009026A700A6019227A70139DE682002F3
:10080000DE66A6009B26A700A6019927A701395DF1
:100810007600277600265A26F6397E065D8DBD24A1
:10082000CCDE26DF2A7E07B7DE746F00BD0F808125
:100830002D2605A700BD0F8009A700BD05BD2B0A09
:10084000A600840FA7009C7226EB3986C0A700DFA4
:1008500022964C8BC0BD0951DF24DE22BD095926EA
:1008600015DE24A6008437A70097357A004E261B94
:10087000CE04DB7E0506DE24A6008010A700973597
:100880007A004F2606CE03D47E064D39BD0F8081F7
:10089000312D2581392C21840F4816862EBD0F89D4
:1008A000BD0F80813027048135260D84011B4880CF
:1008B0000497214F97204C394F399F229E589636E6
:1008C00016C40758378438444436DE20A60036A6BE
:1008D00001369E22397F0032962F9B2D972F2A12A8
:1008E000840F972F7C0032964C840727567A004C51
:1008F000201781102513840F972F7C0032964C848B
:10090000074C8108273D7C004C962E9B2C972E2A65
:1009100014840F972E7C0032964C1684382724C0FE
:1009200008D74C201A81102516840F972E7C003290
:10093000964C1684388B0881402708CB08D74C2664
:1009400002860139962F448407D62E5858C4381B86
:10095000397F00209721DE2039DF209621813E3922
:10096000963584302701393333CE0479BD05067EB0
:100970000B39CE0100BD0506BD0516BD0F809734AD
:10098000814E2609CE04F5BD0506BD0F8CC6C0D725
:1009900026BD0516847FC60FD720BD0954E60096F4
:1009A00026BD0951E7007C002626E67F004E7F0029
:1009B0004FCE00C0A6001684089B4E974EC43054FC
:1009C00054DB4FD74F088C010026E9964E4444442F
:1009D000974E81072A0A81022A33C608D726201F8C
:1009E000C6F7D7262004C6CFD726BD05168AC0BDB8
:1009F00009519626A400A7007E09ABC610D726BDD4
:100A000005168AC0BD09519626AA0020E9964F44D2
:100A100044974F81202ACF810A2BE086059B4F9770
:100A200050CE0050C601BD0529CE014EC602BD06FE
:100A300062CE004FC601BD0529CE013CC602BD06EF
:100A400062964E8A30B7015FCE0128BD0506BD050E
:100A500016843F974CBD062FBD063BBD05C8DE5A28
:100A6000C601BD060FCE0170BD0506C601BD0676E6
:100A7000863290509726DE56C601BD0529CE01B6B6
:100A8000C602BD0662CE01A88D24C602BD067696BA
:100A900035CE01C3843026198647A7008652A701A8
:100AA0008645A7020101A703864EA70420117E05F3
:100AB000068652A7008645A7018644A7026F03CE8B
:100AC00001B88DEAC603BD0676BD0702C604BD06A1
:100AD00076CE01E3DF20DE5ABD0712CE01D88DCEDF
:100AE000C605BD0676DE66C602BD0529CE01F5C681
:100AF00004BD0662CE01E78DB5C606BD0676CE0002
:100B00004DC601BD0529CE0203C602BD0662CE0157
:100B1000F7BD0AAEC607BD0676DE68C602BD05296A
:100B2000CE0213C604BD0662CE0205BD0506C60888
:100B3000BD0676CE0170BD0506CE0A00DF26BD08D3
:100B40001D7A0034CE0215BD0506BD0F808130260A
:100B5000037E0C4C813126037E0A65813226037E9A
:100B60000B7E813326037E0BD3813426037E0C1348
:100B7000813526037E0DB8813626C97E0D32CE0220
:100B80004DBD0506BD07028D25964C16C43827219C
:100B90008008BD07608D17964CBD07608D10964C80
:100BA000813824128B08BD07608D037E0B397E07C8
:100BB000278D087E0B958D037E0BA9CE04C94FBDF2
:100BC000073CCE04CF4FBD073CCE04D54FBD073CFC
:100BD0007E0792CE0422BD0506C631BD0729CE0090
:100BE000C0DF20CE0084DF22DE208C01002721A67A
:100BF0000008DF20DE22BD073C86069B2397238169
:100C0000B426E5CE0080BD0506C631BD072920D338
:100C10007E0B39CE0330BD0506BD08282BF5BD057A
:100C20008ADE28DF269655270DBD07D82515BD0776
:100C3000E9BD08002013BD07DC2508BD07EDBD0791
:100C4000FC2006CE034CBD05067E0B39CE0220BD2E
:100C50000506BD088C27F5CE0233BD0506BD0F8005
:100C6000813025F3813824EF84074848481686AE42
:100C7000BD0F89BD0F80813025DD813824D98407DF
:100C80001B27D49730BD08BA7F0031BD08D5260395
:100C90007E0653963227109731CE1900DF26BD0805
:100CA0001DBD062FBD05C8BD0944BD0622260EBDCB
:100CB0000959272D2443963126037E06587A0030A1
:100CC00026C9963127087A005026037E064ABD09B8
:100CD000449736BD06222603BD0D0DBD0D127E0ABA
:100CE00065963126D8BD084BCE03BABD0506CE5851
:100CF00002DF26BD07987E0CBD963126C0BD084B8D
:100D0000CE037FBD0506CEDC05DF2620E6C6017ECC
:100D1000060F963E2A01398438D636C43811260E7D
:100D2000963ED636CB01112706C002112701397E27
:100D3000063B964D27797A004DCEFA00DF26BD0797
:100D4000DC24037E0C43BD07EDCE03608D41BD085E
:100D50008C27F6BD08BA964C9730BD08D5273B9630
:100D6000322637BD0944169726CE041EBD0717CE7E
:100D700004128D1B9626BD062227037E0D5ABD093F
:100D8000592517270DBD084BCE037F8D0220267EE7
:100D90000506BD084BCE03BA8DF59630974CBD09BC
:100DA00060CE0396BD0506CEC800BD07982006CECE
:100DB00004B6BD05067E0B39CE04338DD2BD08289E
:100DC0002BF6BD058ADE28DF26BD081DBD0960BDE6
:100DD00005118001270416BD080FDE26DF2CDE6A10
:100DE000DF24DE60BD0DFBDE6CDF24DE62BD0DFBAB
:100DF000DE6EDF24DE64BD0DFB20BADF22A6002AF2
:100E00000139DE2CDF26CE0465DF20DE22BD07128D
:100E1000CE044EBD0506CE00368D5C9728D729DE60
:100E2000228D5490282A0140D0292A01501B444485
:100E30008403162703BD080FDE24BD07EF2B2D26E4
:100E4000046D002727C602BD0529CE0477C604BD60
:100E50000662CE046BBD0506DE24A6009726A60119
:100E60009727C602BD080FDE267E0798CE03CABDAF
:100E70000506DE227E084BA60016BD05128407C4B7
:0A0E8000073926030809397E06240D
:0F0F80003F01810327068D01393F04393F0039B6
:00000001FF
