S113FC00BDFD2B27FB8D08812E26037EFF8F39F641
S113FC10F401C50227F9B7F4007CF0F539812F2FE0
S113FC200E813922020C3981402F0481462FF60DB2
S113FC30398530270C48484848C5302708C40F1B6D
S113FC40398B0920F0CB0920F48DB58DD02510B760
S113FC50F0F68DAC8DC7250716B6F0F67EFCDBBD3D
S113FC60FD267EFC49BDFD4D8DDFB7F0F38DDAB77F
S113FC70F0F4FEF0F33930EE000908A60081FF2706
S113FC80048D8C20F531316E018DEB2053FF8DD521
S113FC90FFF0EF8DE12046FF8DCBFFF0F1391684A4
S113FCA0F0444444448109220B8B30C40FC109221F
S113FCB007CB30398B3720F3CB3739FFF0EDB6F073
S113FCC0ED8D06B6F0EE8D013937368DD137BDFC9A
S113FCD00F32BDFC0F323339010101BDFC3116FB7B
S113FCE0F0E0F7F0E039BDFC760D0AFFBDFC0081C1
S113FCF05326F9BDFC00813926037EFFE9813126B4
S113FD00EB7FF0E0BDFC498002B7F0E1BDFC65BDCE
S113FD10FC497AF0E12705A7000820F37CF0E027EE
S113FD20CB8D037EFF8F863F7EFC0FB6F4018501E9
S113FD3027F9B6F400398D15FEF0FD8D1C8D1A8D52
S113FD40188D108D0ECEF0FD8D0A7EFF8F8620BD9E
S113FD50FC0F3908A600BDFCC908A600BDFCC98D6E
S113FD60EC39BDFC89BDFC7620546FFFBDFC65FFFA
S113FD70F0EAFFF0E6FEF0EFFFF0E88D592A23FEEB
S113FD80F0F108FFF0F1FEF0EFBCF0F126037EFF86
S113FD908FA60008FFF0EFFEF0EAA70008FFF0EAE4
S113FDA020E4FEF0F1FFF0E68D2CBBF0EBFBF0EA73
S113FDB0B7F0EBF7F0EAFEF0EF09FFF0EFFEF0F139
S113FDC0BCF0EF27C9A60009FFF0F1FEF0EAA70096
S113FDD009FFF0EA20E7CEF0E6A601E600A003E280
S113FDE00239BDFC89FEF0EFFFF0DEB6F0F2B0F0B0
S113FDF0DFF6F0F1F2F0DE260481102502860F8B87
S113FE0004B7F0E18003B7F0E2BDFC760D0A53318C
S113FE10FF5FCEF0E1BDFEA8CEF0DEBDFEA8BDFEC4
S113FE20A8FEF0DEBDFEA87AF0E226F8FFF0DE536D
S113FE3037308D7433FEF0DE09BCF0F126AD7EFF61
S113FE408F0101BDFC65BDFD4D7FF0F5A600BDFC35
S113FE50C9BDFC008120260C08B6F0F581162FECF4
S113FE608D3520E2812F26030920F5810D26030814
S113FE7020EEBDFC1D2519B7F0F6BDFC00BDFC1D30
S113FE8025D216B6F0F6BDFC31A700BDFD4D20C845
S113FE90863FBDFC0F20BAFFF0E3BDFC760D0A00DF
S113FEA0FFFEF0E3BDFCBB39EB0036A600BDFCC988
S113FEB0320839BDFC7620312E302E30FF7EFF8F84
S113FEC00101BDFC65BDFC00B6F0F4F6F0F3FEF0F4
S113FED0FDA707E706BEF0FD3BBDFC0081312610FF
S113FEE0FEF0F7B6F0FBA700B6F0F8F6F0F720DE68
S113FEF0813227037EFF8FFEF0F9B6F0FCA700B62F
S113FF00F0FAF6F0F920C7BDFC89FEF0EFBDFE97CC
S113FF108608B7F0F60908BDFD4DA600BDFCC9BCB6
S113FF20F0F12606B6F4007EFF8FB6F401850126B3
S113FF30F37AF0F626E00820D4BDFC0081312612C5
S113FF40BDFC65A600B7F0FBFFF0F7863FA7007E77
S113FF50FF8F813226F9BDFC65A600B7F0FCFFF0E7
S113FF60F920E8BDFC762043432042202041202094
S113FF7020582020202050432020205350FF7EFF73
S113FF808F8EF0D08603B7F401B7F403BFF0FD8E73
S113FF90F0D08611B7F401BDFC760D0A002AFFBD2E
S113FFA0FC0081532793814827B9815026037EFDA5
S113FFB0E2814C26037EFCE6815226037EFD3681D7
S113FFC04226037EFD62815626037EFEB3814D26C2
S113FFD0037EFE43814726037EFEC2814326037EC1
S113FFE0FED9814426A97EFF07C607BDFD2B5A26EC
S113FFF0FA7EFF8F01010101F0E0FF8CF0DDFF814B
S9030000FC
