S113EC00BDED2B27FB8D08812E26037EEF8F39F671
S113EC10F401C50227F9B7F4007CF0F539812F2FF0
S113EC200E813922020C3981402F0481462FF60DC2
S113EC30398530270C48484848C5302708C40F1B7D
S113EC40398B0920F0CB0920F48DB58DD02510B770
S113EC50F0F68DAC8DC7250716B6F0F68DD3398640
S113EC603F8DAC20E4BDED4D8DDFB7F0F38DDAB709
S113EC70F0F4FEF0F33930EE000908A60081FF2716
S113EC80048D8C20F531316E018DEB2053FF8DD531
S113EC90FFF0EF8DE12046FF8DCBFFF0F1391684B4
S113ECA0F0444444448109220B8B30C40FC109222F
S113ECB007CB30398B3720F3CB3739FFF0EDB6F083
S113ECC0ED8D06B6F0EE8D01398DD3F7F0ECBDEC89
S113ECD00FB6F0ECBDEC0F39BDEC89CE00008DBE53
S113ECE00826FB8D14FEF0EF0908A600BDEC0FBC4E
S113ECF0F0F126F58D357EEF8F8653BDEC0FBDEC1C
S10AED000F8611B7F401397D
S113ED290101B6F401850127F9B6F400398D15FE00
S113ED39F0FD8D1C8D1A8D188D108D0ECEF0FD8D64
S113ED490A7EEF8F8620BDEC0F3908A600BDECC9F9
S113ED5908A600BDECC98DEC39BDEC89BDEC762063
S113ED69546FFFBDEC65FFF0EAFFF0E6FEF0EFFF3C
S113ED79F0E88D592A23FEF0F108FFF0F1FEF0EFD7
S113ED89BCF0F126037EEF8FA60008FFF0EFFEF03A
S113ED99EAA70008FFF0EA20E4FEF0F1FFF0E68DAF
S113EDA92CBBF0EBFBF0EAB7F0EBF7F0EAFEF0EF7F
S113EDB909FFF0EFFEF0F1BCF0EF27C9A60009FF47
S113EDC9F0F1FEF0EAA70009FFF0EA20E7CEF0E649
S113EDD9A601E600A003E202398D4FBDEC49B7F064
S113EDE9E58D4FBDEC49B0F0E5231780022B17B729
S113EDF9F0E5BDEC7620523DFFB6F0E5BDECC97EE9
S113EE09EF8F80022BE9BDEC762052414E47452114
S113EE19FF20EC8D15BDEC65FFF0E88D15BDEC65A3
S113EE29FFF0E6BDEDD62BDA20C1BDEC76205020EB
S113EE39FF39BDEC76204420FF39BDEC65BDED4DAD
S113EE497FF0F5A600BDECC9BDEC008120260C08B5
S113EE59B6F0F581162FEC8D3520E2812F260309B2
S113EE6920F5810D26030820EEBDEC1D2519B7F008
S113EE79F6BDEC00BDEC1D25D216B6F0F6BDEC319D
S113EE89A700BDED4D20C8863FBDEC0F20BAFFF0A9
S113EE99E3BDEC760D0A00FFFEF0E3BDECBB39BD22
S113EEA9EC657FF0F58DE7BDED4DBDEC49A7000894
S113EEB9B6F0F581262FF320E9BDEC65BDEC00B66B
S113EEC9F0F4F6F0F3FEF0FDA707E706BEF0FD3B0C
S113EED9BDEC0081312610FEF0F7B6F0FBA700B6B1
S113EEE9F0F8F6F0F720DE813227037EEF8FFEF08B
S113EEF9F9B6F0FCA700B6F0FAF6F0F920C7BDECB4
S113EF0989FEF0EFBDEE978608B7F0F60908BDED66
S113EF194DA600BDECC9BCF0F12606B6F4007EEF9F
S113EF298FB6F401850126F37AF0F626E00820D499
S113EF39BDEC0081312612BDEC65A600B7F0FBFFDC
S113EF49F0F7863FA7007EEF8F813226F9BDEC6585
S113EF59A600B7F0FCFFF0F920E8BDEC76204343A6
S113EF6920422020412020205820202020504320C6
S113EF7920205350FF7EEF8F8EF0D08603B7F40123
S113EF89B7F403BFF0FD8EF0D08611B7F401BDECE0
S113EF99760D0A002AFFBDEC008153279381482787
S113EFA9B9815026037EECD8814C26037EED078176
S113EFB95226037EED36814226037EED62815A266E
S113EFC9037EEDE2815826037EEE1C814D26037EE5
S113EFD9EE43814126037EEEA8814726037EEEC2D5
S113EFE9814326037EEED98144269B7EEF0701FFE8
S113EFF9F0D5FEF400A6014724FBA600BDF1228446
S113F0097F27F2812E26037EEF8FFEF0D539BDECE2
S113F01976202B200D0AFF8DD6815326FA8DD081B7
S113F029392727813126F07FF0DDBDF0EB8002B767
S113F039F0DEBDF112BDF0EB7AF0DE2705A700087A
S113F04920F37CF0DD27D0BDF1207EEF8FBDF128C0
S113F059FEF0E0FFF0D9B6F0DCB0F0DAF6F0DBF25E
S113F069F0D9260481102502860F8B04B7F0DE80BF
S113F07903B7F0DFBDEC760D0A5331FF5FCEF0DE46
S113F0898D25CEF0D98D208D1EFEF0D98D197AF0FB
S113F099DF26F9FFF0D95337308D0C33FEF0D90947
S113F0A9BCF0DB26B18DA3EB0036A600BDF15F32BF
S113F0B90839168D09361733444444442000840F13
S113F0C9810922038B30398B37398530270C48481D
S113F0D94848C5302708C40F1B398B0920F0CB09D0
S113F0E920F4BDEFF88D5B2518B7F0E2BDEFF88D7C
S113F0F951250E16B6F0E28DD116FBF0DDF7F0DDE1
S113F10939BDF12020DCBDF16D8DD7B7F0D78DD293
S113F119B7F0D8FEF0D739863F863FBDEC0F398D5D
S113F12910BDEC762053746F703AFF8DD9FFF0DB74
S113F13939BDEC762053746172743AFF8DC8FFF0BF
S113F149E039812F2F0E813922020C3981402F0495
S113F15981462FF60D393736BDF0BB378DBB328D5D
S10DF169B8323339BDEC7620FF39CB
S10BFFF8F0E0EF8CF0DDEF8175
S9030000FC
