:10EC0000BDED2B27FB8D08812E26037EEF8C39F678
:10EC1000F401C50227F9B7F4007CF0F539812F2FF4
:10EC20000E813922020C3981402F0481462FF60DC6
:10EC3000398530270C48484848C5302708C40F1B81
:10EC4000398B0920F0CB0920F48DB58DD02510B774
:10EC5000F0F68DAC8DC7250716B6F0F67EECDBBD61
:10EC6000ED267EEC49BDED4D8DDFB7F0F38DDAB7C3
:10EC7000F0F4FEF0F33930EE000908A60081FF271A
:10EC8000048D8C20F531316E018DEB2053FF8DD535
:10EC9000FFF0EF8DE12046FF8DCBFFF0F1391684B8
:10ECA000F0444444448109220B8B30C40FC1092233
:10ECB00007CB30398B3720F3CB3739FFF0EDB6F087
:10ECC000ED8D06B6F0EE8D01398DD3F7F0ECBDEC8D
:10ECD0000FB6F0ECBDEC0F397EEFDFBDEC3116FB6B
:10ECE000F0E0F7F0E039BDEC76202B200D0AFFBDF7
:10ECF000EC00815326F9BDEC0081392726813126AD
:10ED0000EE7FF0E0BDEC498002B7F0E1BDEC65BDFF
:10ED1000EC497AF0E12705A7000820F37CF0E02712
:10ED2000CE8D037EEF8C863F7EEC0FB6F40185011D
:10ED300027F9B6F400398D15FEF0FD8D1C8D1A8D66
:10ED4000188D108D0ECEF0FD8D0A7EEF8C8620BDC5
:10ED5000EC0F3908A600BDECC908A600BDECC98DB2
:10ED6000EC39BDEC89BDEC7620546FFFBDEC65FF3E
:10ED7000F0EAFFF0E6FEF0EFFFF0E88D592A23FEFF
:10ED8000F0F108FFF0F1FEF0EFBCF0F126037EEFAA
:10ED90008CA60008FFF0EFFEF0EAA70008FFF0EAFB
:10EDA00020E4FEF0F1FFF0E68D2CBBF0EBFBF0EA87
:10EDB000B7F0EBF7F0EAFEF0EF09FFF0EFFEF0F14D
:10EDC000BCF0EF27C9A60009FFF0F1FEF0EAA700AA
:10EDD00009FFF0EA20E7CEF0E6A601E600A003E294
:02EDE0000239F6
:10EE3300BDEC76205020FF39BDEC76204420FF390D
:10EE4300BDEC65BDED4D7FF0F5A600BDECC9BDEC95
:10EE5300008120260C08B6F0F581162FEC8D3520A5
:10EE6300E2812F26030920F5810D26030820EEBD3C
:10EE7300EC1D2519B7F0F6BDEC00BDEC1D25D2162F
:10EE8300B6F0F6BDEC31A700BDED4D20C8863FBD01
:10EE9300EC0F20BAFFF0E3BDEC760D0A00FFFEF0A5
:05EEA300E3BDECBB39EA
:10EEBF00BDEC65BDEC00B6F0F4F6F0F3FEF0FDA787
:10EECF0007E706BEF0FD3BBDEC0081312610FEF0DA
:10EEDF00F7B6F0FBA700B6F0F8F6F0F720DE8132B8
:10EEEF0027037EEF8CFEF0F9B6F0FCA700B6F0FA20
:10EEFF00F6F0F920C7BDEC89FEF0EFBDEE9786085E
:10EF0F00B7F0F60908BDED4DA600BDECC9BCF0F198
:10EF1F002606B6F4007EEF8CB6F401850126F37A4F
:10EF2F00F0F626E00820D4BDEC0081312612BDECAE
:10EF3F0065A600B7F0FBFFF0F7863FA7007EEF8CCA
:10EF4F00813226F9BDEC65A600B7F0FCFFF0F92081
:10EF5F00E8BDEC762043432042202041202020585A
:10EF6F002020202050432020205350FF7EEF8C8EF6
:10EF7F00F0D08603B7F401B7F403BFF0FD8EF0D0E5
:10EF8F008611B7F401BDEC760D0A002AFFBDEC0027
:10EF9F0081532793814827B9815026037EECD8816E
:10EFAF004C26037EECE6815226037EED3681422607
:10EFBF00037EED62814D26037EEE43814726037E5D
:10EFCF00EEBF814326037EEED6814426B07EEF044A
:10EFDF00BDEC89FEF0EFFFF0DEB6F0F2B0F0DFF639
:10EFEF00F0F1F2F0DE260481102502860F8B04B7B4
:10EFFF00F0E18003B7F0E2BDEC760D0A5331FF5F0D
:10F00F00CEF0E18D26CEF0DE8D218D1FFEF0DE8D50
:10F01F001A7AF0E226F9FFF0DE5337308D0D33FE0A
:10F02F00F0DE09BCF0F126B1BDED23EB0036A600F2
:06F03F00BDECC9320839E6
:08FFF800F0E0EF89F0DDEF7E7F
:00000001FF
