:10FC0000BDFD2B27FB8D08812E26037EFF8F39F645
:10FC1000F401C50227F9B7F4007CF0F539812F2FE4
:10FC20000E813922020C3981402F0481462FF60DB6
:10FC3000398530270C48484848C5302708C40F1B71
:10FC4000398B0920F0CB0920F48DB58DD02510B764
:10FC5000F0F68DAC8DC7250716B6F0F67EFCDBBD41
:10FC6000FD267EFC49BDFD4D8DDFB7F0F38DDAB783
:10FC7000F0F4FEF0F33930EE000908A60081FF270A
:10FC8000048D8C20F531316E018DEB2053FF8DD525
:10FC9000FFF0EF8DE12046FF8DCBFFF0F1391684A8
:10FCA000F0444444448109220B8B30C40FC1092223
:10FCB00007CB30398B3720F3CB3739FFF0EDB6F077
:10FCC000ED8D06B6F0EE8D01398DD3F7F0ECBDFC6D
:10FCD0000FB6F0ECBDFC0F397EFDE2BDFC3116FB2A
:10FCE000F0E0F7F0E039BDFC76202B200D0AFFBDD7
:10FCF000FC00815326F9BDFC00813927268131267D
:10FD0000EE7FF0E0BDFC498002B7F0E1BDFC65BDCF
:10FD1000FC497AF0E12705A7000820F37CF0E027F2
:10FD2000CE8D037EFF8F863F7EFC0FB6F4018501EA
:10FD300027F9B6F400398D15FEF0FD8D1C8D1A8D56
:10FD4000188D108D0ECEF0FD8D0A7EFF8F8620BDA2
:10FD5000FC0F3908A600BDFCC908A600BDFCC98D72
:10FD6000EC39BDFC89BDFC7620546FFFBDFC65FFFE
:10FD7000F0EAFFF0E6FEF0EFFFF0E88D592A23FEEF
:10FD8000F0F108FFF0F1FEF0EFBCF0F126037EFF8A
:10FD90008FA60008FFF0EFFEF0EAA70008FFF0EAE8
:10FDA00020E4FEF0F1FFF0E68D2CBBF0EBFBF0EA77
:10FDB000B7F0EBF7F0EAFEF0EF09FFF0EFFEF0F13D
:10FDC000BCF0EF27C9A60009FFF0F1FEF0EAA7009A
:10FDD00009FFF0EA20E7CEF0E6A601E600A003E284
:10FDE0000239BDFC89FEF0EFFFF0DEB6F0F2B0F0B4
:10FDF000DFF6F0F1F2F0DE260481102502860F8B8B
:10FE000004B7F0E18003B7F0E2BDFC760D0A533190
:10FE1000FF5FCEF0E1BDFEA8CEF0DEBDFEA8BDFEC8
:10FE2000A8FEF0DEBDFEA87AF0E226F8FFF0DE5371
:10FE300037308D7433FEF0DE09BCF0F126ADBDFD28
:10FE4000232065BDFC65BDFD4D7FF0F5A600BDFC22
:10FE5000C9BDFC008120260C08B6F0F581162FECF8
:10FE60008D3520E2812F26030920F5810D26030818
:10FE700020EEBDFC1D2519B7F0F6BDFC00BDFC1D34
:10FE800025D216B6F0F6BDFC31A700BDFD4D20C849
:10FE9000863FBDFC0F20BAFFF0E3BDFC760D0A00E3
:10FEA000FFFEF0E3BDFCBB39EB0036A600BDFCC98C
:03FEB000320839DC
:10FEC200BDFC65BDFC00B6F0F4F6F0F3FEF0FDA754
:10FED20007E706BEF0FD3BBDFC0081312610FEF0B7
:10FEE200F7B6F0FBA700B6F0F8F6F0F720DE8132A5
:10FEF20027037EFF8FFEF0F9B6F0FCA700B6F0FAFA
:10FF0200F6F0F920C7BDFC89FEF0EFBDFE9786082A
:10FF1200B7F0F60908BDFD4DA600BDFCC9BCF0F165
:10FF22002606B6F4007EFF8FB6F401850126F37A29
:10FF3200F0F626E00820D4BDFC0081312612BDFC7B
:10FF420065A600B7F0FBFFF0F7863FA7007EFF8FA4
:10FF5200813226F9BDFC65A600B7F0FCFFF0F9205E
:10FF6200E8BDFC7620434320422020412020205837
:10FF72002020202050432020205350FF7EFF8F8ED0
:10FF8200F0D08603B7F401B7F403BFF0FD8EF0D0D2
:10FF92008611B7F401BDFC760D0A002AFFBDFC00F4
:10FFA20081532793814827B9815026037EFCD8814B
:10FFB2004C26037EFCE6815226037EFD36814226D4
:10FFC200037EFD62814D26037EFE43814726037E2A
:10FFD200FEC2814326037EFED9814426B07EFF07FE
:08FFF800F0E0FF8CF0DDFF8159
:00000001FF
