:10FC00000E8EF0FD8610B7F0058655B7F0FF867FA3
:10FC1000B7F0048608B7F0038603B7F401B7F4031E
:10FC20008611B7F401B7F403CEF400FFF00086317B
:10FC3000B7F002CEF400A601472510CEF402A601CB
:10FC40004724F0FFF0008632B7F0028D588EF0FDA9
:10FC5000BDFEBDB6F002BDFCE3BDFE6C3E3E200025
:10FC60008D2B8D36CEFF84A1002607BDFDB9EE0198
:10FC70006E000808088CFF9026EDF6F800C11226E9
:10FC80000AF6F801C1212603BDF80220C08D1684B2
:10FC90007F8D50812E260220B43981612D06817A14
:10FCA0002E028020397FF02937FFF015FEF0007C0E
:10FCB000F02B5C270DA6014724F5A600FEF01533B6
:10FCC0004D39F6F004C40127EC7CF028F6F0282624
:10FCD000E47CF029F6F02958F7F0FF20D88DC620F3
:10FCE00002863F7CF02A37FFF015FEF0007CF02BF7
:10FCF000E601C50227F7A700FEF0153339FFF0171C
:10FD0000FEF000A6014724FBA6008DD7812E260316
:10FD10007EFC4DFEF017398DE4815326FA8DDE818D
:10FD2000392727813126F07FF0238D568002B7F0E6
:10FD3000248D758D4D7AF0242705A7000820F486C0
:10FD40000D8DA07CF02327CF8D977EFC4D8D072451
:10FD50000DBDFC9A2000812F2F0E813922020C3913
:10FD600081402F0481462FF60D398530270C4848F5
:10FD70004848C5302708C40F1B398B0920F0CB0930
:10FD800020F4BDFCFD8DC62518B7F006BDFCFD8D29
:10FD9000BC250E16B6F0068DD116FBF023F7F02326
:10FDA00039BDFCE120DC8D118DD8B7F0138DD3B7B0
:10FDB000F014FEF01339BDFCE3BDFE6C2000398D5C
:10FDC00010BDFE6C2053746F703A008DD9FFF0099E
:10FDD00039BDFE6C2053746172743A008DC8FFF017
:10FDE000073936FFF013B6F0138D07B6F0148D0205
:10FDF000323937368D5E37BDFCE332BDFCE332333A
:10FE000039FFF01DB7F0278D630D0A53503D0030C8
:10FE100008088DCE8D562043433D0030A6028DD27A
:10FE20008D4A20423D0030A6038DC78D3F20413DC5
:10FE30000030A6048DBC8D3420583D0030EE058D79
:10FE4000A18D292050433D0030EE078D95B6F02757
:10FE5000FEF01D39168D0936173344444444200002
:10FE6000840F810922038B30398B3739FFF01BB7A0
:10FE7000F02630200EFFF01BB7F0263008080808E7
:10FE8000080808FFF01FEE008D1808FFF019FEF0BB
:10FE90001FB6F019A700B6F01AA701B6F026FEF0BB
:10FEA0001B3936A60081072D06BDFCE30820F4327D
:10FEB00039375C5A2F05BDFCE320F83339BDFE6CA1
:10FEC0000D0A00397CF02BF7F02CFFF033BFF03136
:10FED00030EE05E600F7F02D08FFF03530F6F0358E
:10FEE000E705F6F036E706F6F02DF1FF662C2B5805
:10FEF000CEFF3AFFF02FFBF030F7F03024037CF018
:10FF00002FC67EF7F02EFEF02FEE00FFF02FF6F05A
:10FF10002C7FF02CFEF033BDF02E24037CF02CFF60
:10FF2000F033BEF03130E701A702B6F02CA700B6DF
:10FF3000F033A703B6F034A7043BFC4DFCA5FC8DC1
:10FF4000FCDDFCE3FEA2FE75FD82FDA8FDF2FDE2F4
:10FF5000FE01FEB1FDB9FDB6FEBDFC00FF70FF6CF9
:10FF6000FF67FDD1FDC1168606C60139FEF02A39AC
:10FF7000FFF015FEF000A601472404860120014F82
:10FF8000FEF0153947FF904CFD174DFF9453FD1DB2
:10FF90003F146E003F143F0D7FF02AA6003F093F3B
:10FFA000028120260C08B6F02A81162FEE8D312012
:10FFB000E5812F26030920F5810D26030820EEBDDB
:10FFC000FD4D2517B7F0063F02BDFD4D25D316B6F2
:10FFD000F006BDFD6AA7003F0D20CABDFCE120BFB1
:10FFE000FFF0113F0FFEF0117EFDE2010101010162
:10FFF0000101010101010101FF39FEC4FF39FC00CB
:00000001FF
